{
  "contractName": "coinFlip",
  "abi": [
    {
      "constant": true,
      "inputs": [],
      "name": "totalInvestment",
      "outputs": [
        {
          "name": "",
          "type": "uint256"
        }
      ],
      "payable": false,
      "stateMutability": "view",
      "type": "function"
    },
    {
      "constant": true,
      "inputs": [],
      "name": "flipBalance",
      "outputs": [
        {
          "name": "",
          "type": "uint256"
        }
      ],
      "payable": false,
      "stateMutability": "view",
      "type": "function"
    },
    {
      "constant": true,
      "inputs": [],
      "name": "payout",
      "outputs": [
        {
          "name": "",
          "type": "uint256"
        }
      ],
      "payable": false,
      "stateMutability": "view",
      "type": "function"
    },
    {
      "constant": true,
      "inputs": [],
      "name": "contractBalance",
      "outputs": [
        {
          "name": "",
          "type": "uint256"
        }
      ],
      "payable": false,
      "stateMutability": "view",
      "type": "function"
    },
    {
      "constant": true,
      "inputs": [],
      "name": "owner",
      "outputs": [
        {
          "name": "",
          "type": "address"
        }
      ],
      "payable": false,
      "stateMutability": "view",
      "type": "function"
    },
    {
      "constant": false,
      "inputs": [
        {
          "name": "guess",
          "type": "uint256"
        }
      ],
      "name": "flipAndPay",
      "outputs": [
        {
          "name": "",
          "type": "uint256"
        },
        {
          "name": "",
          "type": "string"
        }
      ],
      "payable": true,
      "stateMutability": "payable",
      "type": "function"
    },
    {
      "constant": false,
      "inputs": [],
      "name": "withdrawProfit",
      "outputs": [
        {
          "name": "",
          "type": "uint256"
        }
      ],
      "payable": false,
      "stateMutability": "nonpayable",
      "type": "function"
    },
    {
      "constant": false,
      "inputs": [],
      "name": "withdrawAll",
      "outputs": [],
      "payable": false,
      "stateMutability": "nonpayable",
      "type": "function"
    },
    {
      "constant": true,
      "inputs": [],
      "name": "getContractBalance",
      "outputs": [
        {
          "name": "",
          "type": "uint256"
        }
      ],
      "payable": false,
      "stateMutability": "view",
      "type": "function"
    },
    {
      "constant": false,
      "inputs": [],
      "name": "fundContract",
      "outputs": [],
      "payable": true,
      "stateMutability": "payable",
      "type": "function"
    }
  ],
  "bytecode": "0x608060405260006001556000600255336000806101000a81548173ffffffffffffffffffffffffffffffffffffffff021916908373ffffffffffffffffffffffffffffffffffffffff1602179055506107e58061005d6000396000f3fe6080604052600436106100915760003560e01c8063853828b611610059578063853828b6146101f05780638b7afe2e146102075780638da5cb5b14610232578063959499b614610289578063bd097e21146102b457610091565b806310ea13df14610096578063182b3ef5146100c157806363bd1d4a146100ec5780636f9fb98a146101175780638399515c14610142575b600080fd5b3480156100a257600080fd5b506100ab6102be565b6040518082815260200191505060405180910390f35b3480156100cd57600080fd5b506100d66102c4565b6040518082815260200191505060405180910390f35b3480156100f857600080fd5b506101016102ca565b6040518082815260200191505060405180910390f35b34801561012357600080fd5b5061012c6102d0565b6040518082815260200191505060405180910390f35b61016e6004803603602081101561015857600080fd5b81019080803590602001909291905050506102ef565b6040518083815260200180602001828103825283818151815260200191508051906020019080838360005b838110156101b4578082015181840152602081019050610199565b50505050905090810190601f1680156101e15780820380516001836020036101000a031916815260200191505b50935050505060405180910390f35b3480156101fc57600080fd5b5061020561052a565b005b34801561021357600080fd5b5061021c6105dc565b6040518082815260200191505060405180910390f35b34801561023e57600080fd5b506102476105e2565b604051808273ffffffffffffffffffffffffffffffffffffffff1673ffffffffffffffffffffffffffffffffffffffff16815260200191505060405180910390f35b34801561029557600080fd5b5061029e610607565b6040518082815260200191505060405180910390f35b6102bc6106d4565b005b60045481565b60015481565b60035481565b60003073ffffffffffffffffffffffffffffffffffffffff1631905090565b60006060600134101561034d576040517f08c379a00000000000000000000000000000000000000000000000000000000081526004018080602001828103825260268152602001806107946026913960400191505060405180910390fd5b600083148061035c5750600183145b6103ce576040517f08c379a000000000000000000000000000000000000000000000000000000000815260040180806020018281038252601d8152602001807f43686f696365206d757374206265206865616473206f72207461696c7300000081525060200191505060405180910390fd5b600060018190555034600160008282540192505081905550346002600082825401925050819055506000339050600060606003546002541015610479576040517f08c379a00000000000000000000000000000000000000000000000000000000081526004018080602001828103825260208152602001807f536f7272792c20776520646f6e27742068617665207468617420616d6f756e7481525060200191505060405180910390fd5b6104816106f6565b915061048c82610708565b90508582141561050d576002600154026003819055508273ffffffffffffffffffffffffffffffffffffffff166108fc6003549081150290604051600060405180830381858888f193505050501580156104ea573d6000803e3d6000fd5b506003546002600082825403925050819055506003548194509450505050610525565b60015460000360038190555060035481945094505050505b915091565b6000809054906101000a900473ffffffffffffffffffffffffffffffffffffffff1673ffffffffffffffffffffffffffffffffffffffff163373ffffffffffffffffffffffffffffffffffffffff161461058357600080fd5b6000600254905060006002819055503373ffffffffffffffffffffffffffffffffffffffff166108fc829081150290604051600060405180830381858888f193505050501580156105d8573d6000803e3d6000fd5b5050565b60025481565b6000809054906101000a900473ffffffffffffffffffffffffffffffffffffffff1681565b60008060009054906101000a900473ffffffffffffffffffffffffffffffffffffffff1673ffffffffffffffffffffffffffffffffffffffff163373ffffffffffffffffffffffffffffffffffffffff161461066257600080fd5b6004546002541161067257600080fd5b60006004546002540390506004546002819055503373ffffffffffffffffffffffffffffffffffffffff166108fc829081150290604051600060405180830381858888f193505050501580156106cc573d6000803e3d6000fd5b508091505090565b3460046000828254019250508190555034600260008282540192505081905550565b60006002428161070257fe5b06905090565b6060806000831415610751576040518060400160405280600581526020017f6865616473000000000000000000000000000000000000000000000000000000815250905061078a565b6040518060400160405280600581526020017f7461696c7300000000000000000000000000000000000000000000000000000081525090505b8091505091905056fe4d696e696d756d20626574206973202e30303030303030303030303030303030303120455448a165627a7a723058200500a180f8d0343f50587d46182fd4636538b290b819d12be9d8c3573e9db0420029",
  "source": "import \"./Ownable.sol\";\npragma solidity 0.5.8;\n\ncontract coinFlip is Ownable{\n\nuint public flipBalance = 0;\nuint public contractBalance = 0;\nuint public payout;\nuint public totalInvestment;\n\n\n\nfunction random() private view returns(uint) {\n  return now % 2;\n  }\n\n  function flipAndPay(uint guess) public payable returns(uint, string memory){\n        require (msg.value >= 1, \"Minimum bet is .000000000000000001 ETH\");\n        require(guess == 0 || guess == 1, \"Choice must be heads or tails\");\n        flipBalance = 0;\n        flipBalance += msg.value;\n        contractBalance += msg.value;\n        address payable player = msg.sender;\n        uint flip;\n        string memory flip_result;\n\n\n\n        require(contractBalance >= payout, \"Sorry, we don't have that amount\");\n\n        flip = random();\n        flip_result = getResult(flip);\n\n        if(flip == guess){\n            payout = flipBalance * 2;\n            player.transfer(payout);\n            contractBalance -= payout;\n            return(payout, flip_result);\n\n        }\n\n        else{\n            payout = -flipBalance;\n            return(payout, flip_result);\n        }\n\n  }\n\n  function getResult(uint flip) private pure returns(string memory){\n    string memory result;\n    if(flip == 0){\n      result = \"heads\";\n    }\n    else{\n      result = \"tails\";\n    }\n    return result;\n  }\n\n\n     function withdrawProfit() public onlyOwner returns(uint) {\n       require(contractBalance > totalInvestment);\n       uint toTransfer = contractBalance - totalInvestment;\n       contractBalance = totalInvestment;\n       msg.sender.transfer(toTransfer);\n       return toTransfer;\n}\n\n    function withdrawAll() public onlyOwner{\n        uint toTransfer = contractBalance;\n        contractBalance = 0;\n        msg.sender.transfer(toTransfer);\n\n    }\n\n    function getContractBalance () public view returns (uint){\n      return address(this).balance;\n  }\n\n    function fundContract() public payable{\n      totalInvestment += msg.value;\n      contractBalance += msg.value;\n    }\n\n}\n",
  "sourcePath": "/Users/rahobbs88/Documents/ETH201/coinflip/contracts/coinFlip.sol",
  "compiler": {
    "name": "solc",
    "version": "0.5.8+commit.23d335f2.Emscripten.clang"
  },
  "schemaVersion": "3.0.16",
  "updatedAt": "2020-09-23T21:54:35.332Z",
  "devdoc": {
    "methods": {}
  },
  "userdoc": {
    "methods": {}
  }
}