{
  "contractName": "coinFlip",
  "abi": [
    {
      "constant": true,
      "inputs": [],
      "name": "flipBalance",
      "outputs": [
        {
          "name": "",
          "type": "uint256"
        }
      ],
      "payable": false,
      "stateMutability": "view",
      "type": "function"
    },
    {
      "constant": true,
      "inputs": [],
      "name": "payout",
      "outputs": [
        {
          "name": "",
          "type": "uint256"
        }
      ],
      "payable": false,
      "stateMutability": "view",
      "type": "function"
    },
    {
      "constant": true,
      "inputs": [],
      "name": "contractBalance",
      "outputs": [
        {
          "name": "",
          "type": "uint256"
        }
      ],
      "payable": false,
      "stateMutability": "view",
      "type": "function"
    },
    {
      "constant": true,
      "inputs": [],
      "name": "owner",
      "outputs": [
        {
          "name": "",
          "type": "address"
        }
      ],
      "payable": false,
      "stateMutability": "view",
      "type": "function"
    },
    {
      "constant": true,
      "inputs": [],
      "name": "headsOrTails",
      "outputs": [
        {
          "name": "",
          "type": "string"
        }
      ],
      "payable": false,
      "stateMutability": "view",
      "type": "function"
    },
    {
      "constant": true,
      "inputs": [],
      "name": "flip",
      "outputs": [
        {
          "name": "",
          "type": "string"
        }
      ],
      "payable": false,
      "stateMutability": "view",
      "type": "function"
    },
    {
      "constant": false,
      "inputs": [
        {
          "name": "guess",
          "type": "string"
        }
      ],
      "name": "flipAndPay",
      "outputs": [
        {
          "name": "",
          "type": "uint256"
        },
        {
          "name": "",
          "type": "string"
        }
      ],
      "payable": true,
      "stateMutability": "payable",
      "type": "function"
    },
    {
      "constant": false,
      "inputs": [],
      "name": "withdrawProfit",
      "outputs": [
        {
          "name": "",
          "type": "uint256"
        }
      ],
      "payable": false,
      "stateMutability": "nonpayable",
      "type": "function"
    },
    {
      "constant": false,
      "inputs": [],
      "name": "withdrawAll",
      "outputs": [],
      "payable": false,
      "stateMutability": "nonpayable",
      "type": "function"
    }
  ],
  "bytecode": "0x6080604052600060015568056bc75e2d63100000600255336000806101000a81548173ffffffffffffffffffffffffffffffffffffffff021916908373ffffffffffffffffffffffffffffffffffffffff160217905550610b81806100656000396000f3fe6080604052600436106100865760003560e01c80638da5cb5b116100595780638da5cb5b14610123578063959499b61461017a578063b06fa835146101a5578063cde4efa9146102e0578063e290bc401461037057610086565b8063182b3ef51461008b57806363bd1d4a146100b6578063853828b6146100e15780638b7afe2e146100f8575b600080fd5b34801561009757600080fd5b506100a0610400565b6040518082815260200191505060405180910390f35b3480156100c257600080fd5b506100cb610406565b6040518082815260200191505060405180910390f35b3480156100ed57600080fd5b506100f661040c565b005b34801561010457600080fd5b5061010d6104be565b6040518082815260200191505060405180910390f35b34801561012f57600080fd5b506101386104c4565b604051808273ffffffffffffffffffffffffffffffffffffffff1673ffffffffffffffffffffffffffffffffffffffff16815260200191505060405180910390f35b34801561018657600080fd5b5061018f6104e9565b6040518082815260200191505060405180910390f35b61025e600480360360208110156101bb57600080fd5b81019080803590602001906401000000008111156101d857600080fd5b8201836020820111156101ea57600080fd5b8035906020019184600183028401116401000000008311171561020c57600080fd5b91908080601f016020809104026020016040519081016040528093929190818152602001838380828437600081840152601f19601f8201169050808301925050505050505091929192905050506105cb565b6040518083815260200180602001828103825283818151815260200191508051906020019080838360005b838110156102a4578082015181840152602081019050610289565b50505050905090810190601f1680156102d15780820380516001836020036101000a031916815260200191505b50935050505060405180910390f35b3480156102ec57600080fd5b506102f561095f565b6040518080602001828103825283818151815260200191508051906020019080838360005b8381101561033557808201518184015260208101905061031a565b50505050905090810190601f1680156103625780820380516001836020036101000a031916815260200191505b509250505060405180910390f35b34801561037c57600080fd5b50610385610a00565b6040518080602001828103825283818151815260200191508051906020019080838360005b838110156103c55780820151818401526020810190506103aa565b50505050905090810190601f1680156103f25780820380516001836020036101000a031916815260200191505b509250505060405180910390f35b60015481565b60035481565b6000809054906101000a900473ffffffffffffffffffffffffffffffffffffffff1673ffffffffffffffffffffffffffffffffffffffff163373ffffffffffffffffffffffffffffffffffffffff161461046557600080fd5b6000600254905060006002819055503373ffffffffffffffffffffffffffffffffffffffff166108fc829081150290604051600060405180830381858888f193505050501580156104ba573d6000803e3d6000fd5b5050565b60025481565b6000809054906101000a900473ffffffffffffffffffffffffffffffffffffffff1681565b60008060009054906101000a900473ffffffffffffffffffffffffffffffffffffffff1673ffffffffffffffffffffffffffffffffffffffff163373ffffffffffffffffffffffffffffffffffffffff161461054457600080fd5b68056bc75e2d631000006002541161055b57600080fd5b600068056bc75e2d6310000060025403905068056bc75e2d631000006002819055503373ffffffffffffffffffffffffffffffffffffffff166108fc829081150290604051600060405180830381858888f193505050501580156105c3573d6000803e3d6000fd5b508091505090565b6000606060013410156105dd57600080fd5b6000600181905550346001600082825401925050819055503460026000828254019250508190555060003390506003546002541015610684576040517f08c379a00000000000000000000000000000000000000000000000000000000081526004018080602001828103825260208152602001807f536f7272792c20776520646f6e27742068617665207468617420616d6f756e7481525060200191505060405180910390fd5b61068c61095f565b600490805190602001906106a1929190610ab0565b50836040516020018082805190602001908083835b602083106106d957805182526020820191506020810190506020830392506106b6565b6001836020036101000a03801982511681845116808217855250505050505090500191505060405160208183030381529060405280519060200120600460405160200180828054600181600116156101000203166002900480156107745780601f10610752576101008083540402835291820191610774565b820191906000526020600020905b815481529060010190602001808311610760575b50509150506040516020818303038152906040528051906020012014156108a7576002600154026003819055508073ffffffffffffffffffffffffffffffffffffffff166108fc6003549081150290604051600060405180830381858888f193505050501580156107e9573d6000803e3d6000fd5b506003546002600082825403925050819055506003546004808054600181600116156101000203166002900480601f0160208091040260200160405190810160405280929190818152602001828054600181600116156101000203166002900480156108965780601f1061086b57610100808354040283529160200191610896565b820191906000526020600020905b81548152906001019060200180831161087957829003601f168201915b50505050509050925092505061095a565b6001546000036003819055506003546004808054600181600116156101000203166002900480601f01602080910402602001604051908101604052809291908181526020018280546001816001161561010002031660029004801561094d5780601f106109225761010080835404028352916020019161094d565b820191906000526020600020905b81548152906001019060200180831161093057829003601f168201915b5050505050905092509250505b915091565b6060600061096b610a9e565b9050606060008214156109b5576040518060400160405280600581526020017f686561647300000000000000000000000000000000000000000000000000000081525090506109f8565b60018214156109f7576040518060400160405280600581526020017f7461696c7300000000000000000000000000000000000000000000000000000081525090505b5b809250505090565b60048054600181600116156101000203166002900480601f016020809104026020016040519081016040528092919081815260200182805460018160011615610100020316600290048015610a965780601f10610a6b57610100808354040283529160200191610a96565b820191906000526020600020905b815481529060010190602001808311610a7957829003601f168201915b505050505081565b600060024281610aaa57fe5b06905090565b828054600181600116156101000203166002900490600052602060002090601f016020900481019282601f10610af157805160ff1916838001178555610b1f565b82800160010185558215610b1f579182015b82811115610b1e578251825591602001919060010190610b03565b5b509050610b2c9190610b30565b5090565b610b5291905b80821115610b4e576000816000905550600101610b36565b5090565b9056fea165627a7a7230582002ad4eb47a2a7401afd56b2b219e859e5ac372df4d337eeee794ccecd96214130029",
  "source": "import \"./Ownable.sol\";\npragma solidity 0.5.8;\n\ncontract coinFlip is Ownable{\n\nuint public flipBalance = 0;\nuint public contractBalance = 100000000000000000000;\nuint public payout;\nstring public headsOrTails;\n\nfunction random() private view returns (uint) {\n  return now % 2;\n  }\n\nfunction flip() public view returns (string memory) {\n    uint randomResult = random();\n    string memory coinResult;\n\n  if(randomResult == 0){\n    coinResult = \"heads\";\n  }\n\n  else if (randomResult == 1){\n    coinResult = \"tails\";\n  }\n  return coinResult;\n  }\n\n  function flipAndPay(string memory guess) public payable returns(uint, string memory){\n        require (msg.value >= 1);\n        flipBalance = 0;\n        flipBalance += msg.value;\n        contractBalance += msg.value;\n        address payable player = msg.sender;\n\n        require(contractBalance >= payout, \"Sorry, we don't have that amount\");\n\n        headsOrTails = flip();\n\n        if(keccak256(abi.encodePacked(headsOrTails)) == keccak256(abi.encodePacked(guess))){\n            payout = flipBalance * 2;\n            player.transfer(payout);\n            contractBalance -= payout;\n            return(payout, headsOrTails);\n\n        }\n\n        else{\n            payout = -flipBalance;\n            return(payout, headsOrTails);\n        }\n\n  }\n\n\n     function withdrawProfit() public onlyOwner returns(uint) {\n       require(contractBalance > 100000000000000000000);\n       uint toTransfer = contractBalance - 100000000000000000000;\n       contractBalance = 100000000000000000000;\n       msg.sender.transfer(toTransfer);\n       return toTransfer;\n}\n\n    function withdrawAll() public onlyOwner{\n        uint toTransfer = contractBalance;\n        contractBalance = 0;\n        msg.sender.transfer(toTransfer);\n\n    }\n\n}\n",
  "sourcePath": "/Users/rahobbs88/Documents/ETH201/coinflip/contracts/coinFlip.sol",
  "compiler": {
    "name": "solc",
    "version": "0.5.8+commit.23d335f2.Emscripten.clang"
  },
  "schemaVersion": "3.0.16",
  "updatedAt": "2020-09-16T18:40:42.721Z",
  "devdoc": {
    "methods": {}
  },
  "userdoc": {
    "methods": {}
  }
}